S010000038626974734C43442E7372656357
S11300000C9434000C9451000C9451000C94510045
S11300100C9451000C9451000C9451000C94510018
S11300200C9451000C9451000C9451000C94510008
S11300300C9451000C9451000C9451000C945100F8
S11300400C9451000C9451000C9426030C94510010
S11300500C9451000C94E9020C9451000C9451003E
S11300600C9451000C94510011241FBECFEFD8E022
S1130070DEBFCDBF11E0A0E0B1E0E0EAF0E102C0F4
S113008005900D92A83DB107D9F722E0A8EDB1E0A3
S113009001C01D92A437B207E1F70E944A030C94F1
S11300A04E080C940000ECE7F0E09081906490839B
S11300B090819F77908390819F7D9083EAE7F0E021
S11300C0908198689083823021F48081816080835C
S11300D00895843031F4EAE7F0E08081826080831F
S11300E00895883031F4EAE7F0E08081836080830A
S11300F00895803131F4EAE7F0E080818460808300
S11301000895803231F4EAE7F0E0808185608083ED
S11301100895803831F4EAE7F0E0808187608083D5
S11301200895EAE7F0E08081876080830895ECE732
S1130130F0E08081807F8083808185608083089562
S1130140ECE7F0E08081807F80838081866080831B
S11301500895EAE7F0E0808180648083089580FF59
S113016004C095B1986095B903C095B1977F95B9CE
S113017081FF04C095B1906195B903C095B19F7E8C
S113018095B982FF04C09BB194609BB903C09BB135
S11301909B7F9BB983FF04C09BB198609BB903C04C
S11301A09BB1977F9BB984FF04C09BB190619BB9BD
S11301B003C09BB19F7E9BB985FF04C09BB1906235
S11301C09BB903C09BB19F7D9BB986FF04C09BB1C3
S11301D090649BB903C09BB19F7B9BB9882324F493
S11301E08BB180688BB908958BB18F778BB90895E3
S11301F095B19B7F95B90E94AF0085B1816085B9A7
S113020085E08A95F1F7000085B18E7F85B98FE38B
S11302109FE10197F1F700C0000008958AB18FEFC4
S11302208AB91BB884B18F6184B915B82FEF89EFEF
S113023090E0215080409040E1F700C0000088E346
S11302400E94F8008FE19EE40197F1F700C00000DE
S113025088E30E94F8008FE99FE00197F1F700C05E
S1130260000088E30E94F8008FE99FE00197F1F70E
S113027000C0000088E30E94F8008CE00E94F800AF
S113028081E00E94F8008FE39FE10197F1F700C03D
S1130290000086E00E94F800089595B1946095B935
S11302A00E94AF0085B1816085B985E08A95F1F738
S11302B0000085B18E7F85B98FE39FE10197F1F747
S11302C000C0000008950F931F93CF93DF938C0118
S11302D0C0E0D0E003C00E944D012196F801EC0F6C
S11302E0FD1F80818111F7CFDF91CF911F910F9175
S11302F00895CF93613031F4CFE7C80F8C2F0E945B
S1130300F80007C0623029F4CFEBC80F8C2F0E948D
S1130310F8008C2F0E94F800CF910895EF92FF927D
S11303201F93CF93DF9386EA91E00E94AF038091FD
S1130330E2019091E3010F2EF4E6EF2EF12CF02D63
S1130340B7010E940C059F938F937F936F9388E06E
S113035091E09F938F931F9210E11F93C4E6D2E024
S1130360DF93CF930E945605CE010E94AF03809184
S1130370E0019091E101B7010E940C059F938F93D6
S11303807F936F9387E191E09F938F931F921F93C5
S1130390DF93CF930E945605CE010E94AF03809154
S11303A0D8019091D9019F938F9386E291E09F9316
S11303B08F931F921F93DF93CF930E945605CE0114
S11303C00E94AF038DB79EB74C960FB6F8949EBFAC
S11303D00FBE8DBFDF91CF911F91FF90EF900895D5
S11303E00E94D103892B11F10E94BC038B3261F46A
S11303F08091D8019091D90101969093D90180936D
S1130400D8010E948E0108958D3261F48091D80143
S11304109091D90101979093D9018093D8010E94BA
S11304208E0108958FE291E00E94AF030895CF9268
S1130430DF92FF920F931F93CF93DF936091DC01C0
S11304407091DD0180E090E00E9411042AE038E21E
S113045040EA5BE30E94770420E030E048EC52E499
S11304600E9477040E94DB037093E3016093E2012E
S11304706091DA017091DB0180E090E00E94110448
S11304802AE038E240EA5BE30E94770420E030E0AF
S113049048EC52E40E9477040E94DB037093E1016C
S11304A06093E00161E082E00E94790187E591E0D8
S11304B00E94630162E082E00E9479018091E2017E
S11304C09091E3010F2EF4E6CF2ED12CF02DB6013E
S11304D00E940C059F938F937F936F930BE511E01C
S11304E01F930F931F926894FF24F4F8FF92C4E6BD
S11304F0D2E0DF93CF930E945605CE010E946301A0
S113050061E088E00E94790184E691E00E94630141
S113051062E088E00E9479018091E0019091E1011C
S1130520B6010E940C059F938F937F936F931F9343
S11305300F931F92FF92DF93CF930E945605CE0133
S11305400E94630161E08EE00E94790188E691E0F7
S11305500E94630162E08EE00E9479018CE691E0E2
S11305600E94630162E08EE00E9479018091D801CB
S11305709091D9019F938F9385E791E09F938F93F7
S11305801F92FF92DF93CF930E945605CE010E94E3
S113059063018DB79EB74C960FB6F8949EBF0FBEFD
S11305A08DBFDF91CF911F910F91FF90DF90CF907E
S11305B00895853031F40E94970085E0809301010D
S11305C005C00E94A00086E0809301010E94A9005A
S11305D008951F920F920FB60F9211242F933F93F9
S11305E04F935F936F937F938F939F93AF93BF9337
S11305F0EF93FF9380910101853061F4809178003D
S1130600909179009093DD018093DC0186E00E9453
S1130610D9020BC080917800909179009093DB010E
S11306208093DA0185E00E94D902FF91EF91BF9196
S1130630AF919F918F917F916F915F914F913F9176
S11306402F910F900FBE0F901F9018951F920F922D
S11306500FB60F9211248F93EF93FF93E091DF0174
S1130660F0E08091C600EC51FE4F80838091DF0161
S11306708F5F8F778093DF01E091DF01F0E0EC5131
S1130680FE4F1082FF91EF918F910F900FBE0F904C
S11306901F9018950E940E0180E80E94530080E884
S11306A095E20E948103789485E00E94D9028091AA
S11306B000018130C1F42FEF89E698E12150804098
S11306C09040E1F700C0000082E091E00E94AF0397
S11306D088E791E00E94AF0388EA91E00E94AF03AB
S11306E010920001E4CF2FEF89E698E12150804079
S11306F09040E1F700C000000E94F0010E94170240
S1130700D6CFA0E0B0E0880F991FAA1FBB1F880FA7
S1130710991FAA1FBB1F9C01AD01220F331F441F49
S1130720551F220F331F441F551F60E074E284EFEE
S113073090E00E942005215031093093C500209398
S1130740C40088E98093C10086E08093C2000895C4
S11307509091C00095FFFCCF8093C6000895CF937D
S1130760DF93EC0103C021960E94A80388818111C4
S1130770FACFDF91CF9108959091DF018091DE014E
S1130780981769F0E091DE01F0E0EC51FE4F8081B2
S11307909091DE019F5F9F779093DE01089580E042
S11307A008952091DF019091DE0181E0291301C0B9
S11307B080E090E008950E94E2036894B1110C94E3
S11307C0710408950E94560488F09F5798F0B92F39
S11307D09927B751B0F0E1F0660F771F881F991F72
S11307E01AF0BA95C9F714C0B13091F00E947004A0
S11307F0B1E008950C947004672F782F8827B85FB0
S113080039F0B93FCCF3869577956795B395D9F7C9
S11308103EF490958095709561957F4F8F4F9F4FD3
S11308200895E89409C097FB3EF4909580957095DF
S113083061957F4F8F4F9F4F9923A9F0F92F96E928
S1130840BB279395F695879577956795B795F1119D
S1130850F8CFFAF4BB0F11F460FF1BC06F5F7F4F3A
S11308608F4F9F4F16C0882311F096E911C077234C
S113087021F09EE8872F762F05C0662371F096E855
S1130880862F70E060E02AF09A95660F771F881F24
S1130890DAF7880F9695879597F9089557FD90583C
S11308A0440F551F59F05F3F71F04795880F97FB30
S11308B0991F61F09F3F79F08795089512161306EA
S11308C01406551FF2CF4695F1DF08C01616170619
S11308D01806991FF1CF869571056105089408954E
S11308E0E894BB2766277727CB0197F908950E94E0
S11308F08A040C94FB040E94ED0438F00E94F40472
S113090020F0952311F00C94E4040C94EA041124CF
S11309100C9471040E944E0470F3959FC1F3950FDB
S113092050E0551F629FF001729FBB27F00DB11D6F
S1130930639FAA27F00DB11DAA1F649F6627B00DFF
S1130940A11D661F829F2227B00DA11D621F739FE8
S1130950B00DA11D621F839FA00D611D221F749FF6
S11309603327A00D611D231F849F600D211D822F3D
S1130970762F6A2F11249F5750409AF0F1F0882364
S11309804AF0EE0FFF1FBB1F661F771F881F915091
S11309905040A9F79E3F510580F00C94E4040C9458
S11309A071045F3FE4F3983ED4F386957795679599
S11309B0B795F795E7959F5FC1F7FE2B880F911DBB
S11309C09695879597F9089597F99F6780E870E061
S11309D060E008959FEF80EC089500240A941616B1
S11309E0170618060906089500240A941216130619
S11309F0140605060895092E0394000C11F48823A7
S1130A0052F0BB0F40F4BF2B11F460FF04C06F5FC2
S1130A107F4F8F4F9F4F089597FB072E16F4009436
S1130A2007D077FD09D00E94420507FC05D03EF4AB
S1130A30909581959F4F0895709561957F4F089586
S1130A40A1E21A2EAA1BBB1BFD010DC0AA1FBB1FCE
S1130A50EE1FFF1FA217B307E407F50720F0A21B40
S1130A60B30BE40BF50B661F771F881F991F1A94AD
S1130A7069F760957095809590959B01AC01BD01D7
S1130A80CF010895AA1BBB1B51E107C0AA1FBB1FBE
S1130A90A617B70710F0A61BB70B881F991F5A9506
S1130AA0A9F780959095BC01CD010895AEE0B0E022
S1130AB0ECE5F5E00C9425080D891E898F89988D45
S1130AC026E02C831A83098397FF02C080E090E814
S1130AD001979E838D83AE01455E5F4F698D7A8D4C
S1130AE0CE0101960E9486054D815E8157FD0AC0A4
S1130AF02F813885421753070CF49A01F801E20F4D
S1130B00F31F10822E96E4E00C944108ABE0B0E0B1
S1130B10ECE8F5E00C9417086C017B018A01FC01F8
S1130B2017821682838181FFCCC1CE0101963C01DC
S1130B30F6019381F70193FD859193FF81917F01E4
S1130B40882309F4BAC1853239F493FD859193FF62
S1130B5081917F01853229F4B60190E00E947D07DE
S1130B60E7CF912C212C312CFFE1F315D8F08B32F7
S1130B7079F038F4803279F08332A1F4232D2061A6
S1130B801DC08D3261F0803369F4232D216016C0BD
S1130B90832D8260382EE32DE4603E2E2AC0F32D8F
S1130BA0F8601DC037FC2DC020ED280F2A3040F01E
S1130BB08E32B9F436FC81C1232D2064322E19C043
S1130BC036FE06C08AE0989E200D1124922E11C094
S1130BD0EAE02E9E200D1124222EF32DF0623F2EEA
S1130BE008C08C3621F4832D8068382E02C08836E4
S1130BF041F4F70193FD859193FF81917F01811168
S1130C00B3CF982F9F7D9554933028F40C5F1F4FDA
S1130C109FE399830DC0833631F0833771F08335B8
S1130C2009F059C021C0F801808189830E5F1F4FEC
S1130C3088248394912C530113C02801F2E04F0EB1
S1130C40511CF801A080B18036FE03C0692D70E00C
S1130C5002C06FEF7FEFC5010E9472074C01820151
S1130C60F32DFF773F2E16C0280122E0420E511CBF
S1130C70F801A080B18036FE03C0692D70E002C087
S1130C806FEF7FEFC5010E9467074C01F32DF068F9
S1130C903F2E820133FC1BC0822D90E088169906FA
S1130CA0B0F4B60180E290E00E947D072A94F4CF6C
S1130CB0F50137FC859137FE81915F01B60190E023
S1130CC00E947D0721102A9421E0821A9108811440
S1130CD0910471F7E8C0843611F0893641F5F801C2
S1130CE037FE07C060817181828193810C5F1F4F41
S1130CF008C060817181072E000C880B990B0E5F70
S1130D001F4FF32DFF763F2E97FF09C090958095D6
S1130D10709561957F4F8F4F9F4FF0683F2E2AE06B
S1130D2030E0A3010E94B907882E861845C0853794
S1130D3031F4232D2F7EB22E2AE030E025C0932DEE
S1130D40997FB92E8F36C1F018F4883579F0B5C083
S1130D50803719F0883721F0B0C0E92FE061BE2E4A
S1130D60B4FE0DC0FB2DF460BF2E09C034FE0AC0D2
S1130D70292F2660B22E06C028E030E005C020E10D
S1130D8030E002C020E132E0F801B7FE07C0608124
S1130D907181828193810C5F1F4F06C060817181D4
S1130DA080E090E00E5F1F4FA3010E94B907882ED8
S1130DB08618FB2DFF773F2E36FE0DC0232D2E7F88
S1130DC0A22E891458F434FE0BC032FC09C0832DC2
S1130DD08E7EA82E05C0B82CA32C03C0B82C01C04D
S1130DE0B92CA4FE0FC0FE01E80DF11D80818033F3
S1130DF021F49A2D997EA92E09C0A2FE06C0B394AF
S1130E00B39404C08A2D867809F0B394A3FC11C06E
S1130E10A0FE06C0B21488F4280C922C9B180EC0B5
S1130E20B21460F4B60180E290E00E947D07B394AE
S1130E30F7CFB21418F42B1802C0982C212CA4FE5E
S1130E4010C0B60180E390E00E947D07A2FE17C0A7
S1130E50A1FC03C088E790E002C088E590E0B601F9
S1130E600CC08A2D867859F0A1FE02C08BE201C025
S1130E7080E2A7FC8DE2B60190E00E947D07891410
S1130E8038F4B60180E390E00E947D079A94F7CF8E
S1130E908A94F301E80DF11D8081B60190E00E946F
S1130EA07D078110F5CF222009F442CEB60180E2FD
S1130EB090E00E947D072A94F6CFF60186819781FF
S1130EC002C08FEF9FEF2B96E2E10C943308FC01F4
S1130ED00590615070400110D8F7809590958E0F61
S1130EE09F1F0895FC016150704001900110D8F7D4
S1130EF0809590958E0F9F1F08950F931F93CF9306
S1130F00DF93FB01238121FD03C08FEF9FEF2CC0F2
S1130F1022FF16C046815781248135814217530729
S1130F2044F4A081B1819D012F5F3F4F3183208321
S1130F308C93268137812F5F3F4F3783268314C0DC
S1130F408B01EC01FB010084F185E02D0995892BCF
S1130F50E1F6D80116968D919C91179701961796F4
S1130F609C938E931697CE01DF91CF911F910F9191
S1130F700895FA01AA27283051F1203181F1E8942B
S1130F806F936E7F6E5F7F4F8F4F9F4FAF4FB1E078
S1130F903ED0B4E03CD0670F781F891F9A1FA11D73
S1130FA0680F791F8A1F911DA11D6A0F711D811D74
S1130FB0911DA11D20D009F468943F912AE0269F39
S1130FC011243019305D3193DEF6CF010895462F98
S1130FD04770405D4193B3E00FD0C9F7F6CF462F79
S1130FE04F70405D4A3318F0495D31FD40524193E2
S1130FF002D0A9F7EACFB4E0A6959795879577959F
S11310006795BA95C9F700976105710508959B0125
S1131010AC010A2E06945795479537952795BA95AE
S1131020C9F7620F731F841F951FA01D08952F9287
S11310303F924F925F926F927F928F929F92AF9264
S1131040BF92CF92DF92EF92FF920F931F93CF93B1
S1131050DF93CDB7DEB7CA1BDB0B0FB6F894DEBF48
S11310600FBECDBF09942A88398848885F846E846E
S11310707D848C849B84AA84B984C884DF80EE80B8
S1131080FD800C811B81AA81B981CE0FD11D0FB6C1
S1131090F894DEBF0FBECDBFED010895F894FFCFE5
S11310A001050020200D0A0056313A2025642E2522
S11310B0303264560D0A0056323A2025642E25300B
S11310C03264560D0A0053333A2025640D0A000A8F
S11310D020456C20636F6D616E646F20696E67726A
S11310E0657361646F206E6F207365207265636F32
S11310F06E6F6365200A005631200025642E25306A
S11311003264560056322000533320002020202021
S1131110202020200025640020312E20496E677293
S113112065736520272D27207061726120646563D3
S113113072656D656E74617220656C20636F6E7488
S113114061646F722E0D0A0020322E20496E677280
S113115065736520272B27207061726120696E6397
S113116072656D656E74617220656C20636F6E7458
S10B117061646F722E0D0A0088
S9030000FC
